:020000040810E2
:100000000000082499051008390510084705100854
:100010004D05100853051008590510080000000090
:100020000000000000000000000000005F05100854
:100030006D051008000000007B05100889051008F8
:10004000E9051008E9051008E9051008E905100898
:10005000E9051008E9051008E9051008E905100888
:10006000E9051008E9051008E9051008E905100878
:10007000E9051008E9051008E9051008E905100868
:10008000E9051008E9051008E9051008E905100858
:10009000E9051008E9051008E9051008E905100848
:1000A000E9051008E9051008E9051008E905100838
:1000B000E9051008E9051008E9051008E905100828
:1000C000E9051008E9051008E9051008E905100818
:1000D000E9051008E9051008E9051008E905100808
:1000E000E9051008E905100800000000E9051008FE
:1000F000E9051008E9051008E9051008E9051008E8
:10010000E9051008E9051008E9051008E9051008D7
:10011000E9051008E9051008E9051008E9051008C7
:10012000E9051008E9051008E9051008E9051008B7
:10013000E9051008E9051008E9051008E9051008A7
:10014000E9051008E90510080000000000000000A3
:10015000E9051008E9051008E9051008E905100887
:10016000E9051008E9051008E9051008E905100877
:10017000E9051008E9051008E9051008000000006D
:10018000E9051008E9051008E9051008E905100857
:10019000E9051008E9051008E9051008E905100847
:1001A000E9051008E9051008E9051008E905100837
:1001B000E9051008E9051008E9051008E905100827
:1001C000E9051008E9051008E9051008E905100817
:1001D000E9051008E9051008E9051008E905100807
:1001E000E9051008E9051008E9051008E9051008F7
:1001F000E9051008E9051008E9051008E9051008E7
:10020000E9051008E9051008E9051008E9051008D6
:10021000E9051008E9051008E9051008E9051008C6
:10022000E9051008E9051008E905100800000000BC
:10023000E9051008E9051008E9051008E9051008A6
:10024000E9051008E9051008E9051008E905100896
:10025000E9051008E9051008E9051008E905100886
:10026000E9051008E9051008E9051008E905100876
:10027000E9051008E9051008E9051008E905100866
:10028000E9051008E9051008E9051008000000005C
:10029000E9051008E9051008000000000000000052
:1002A00010B5054C237833B9044B13B10448AFF3B0
:1002B00000800123237010BD4004042400000000CE
:1002C0008807100808B5034B1BB103490348AFF377
:1002D000008008BD000000004404042488071008C2
:1002E00080B483B000AF03463960FB80B7F90630B5
:1002F000002B0ADB3B68DAB20C49B7F90630120171
:10030000D2B20B4483F800230AE03B68DAB2084912
:10031000FB8803F00F03043B1201D2B20B441A76A0
:1003200000BF0C37BD465DF8047B704700E100E07C
:1003300000ED00E080B582B000AF78607B68013BE3
:10034000B3F1807F01D301230FE00A4A7B68013BB0
:1003500053600F214FF0FF30FFF7C2FF054B002223
:100360009A60044B07221A60002318460837BD46DE
:1003700080BD00BF10E000E080B485B000AF7860C1
:100380000A4BD3F8E02009497B681343C1F8E030F9
:10039000064BD3F8E0207B681340FB60FB6800BF8E
:1003A0001437BD465DF8047B704700BF0044025817
:1003B00080B400AF054B1B69044A23F004031361AA
:1003C00000BFBD465DF8047B704700BF00ED00E054
:1003D00080B400AF054B1B69044A43F0040313616A
:1003E00000BFBD465DF8047B704700BF00ED00E034
:1003F00080B483B000AF786039603B681A047B68D2
:100400009A6100BF0C37BD465DF8047B704780B42D
:1004100083B000AF786039607B68D3F810213B6807
:100420001A437B68C3F8102100BF0C37BD465DF846
:10043000047B704780B483B000AF786039607B681C
:100440003A68C3F8142100BF0C37BD465DF8047B41
:100450007047000080B483B000AF7860064B1B6823
:1004600023F0010204497B6813430B6000BF0C3783
:10047000BD465DF8047B70470048025880B483B0E5
:1004800000AF7860064B1B6923F0020204497B68C9
:1004900013430B6100BF0C37BD465DF8047B70470A
:1004A0000048025880B483B000AF7860064B5B69A7
:1004B00023F0020204497B6813434B6100BF0C37F1
:1004C000BD465DF8047B70470048025880B500AF18
:1004D0004FF00070FFF750FF01210848FFF797FF2A
:1004E00000F012F810210648FFF782FF01210348AF
:1004F000FFF7A0FF0348FFF71DFFFEE70064025867
:10050000000C0258400D030080B500AF40BF20BF73
:100510000020FFF79FFF0020FFF7B0FF0020FFF74C
:10052000C1FFFFF755FFBFF34F8FBFF36F8F20BFA2
:10053000FFF73EFF00BF80BD80B400AF00BFBD46E7
:100540005DF8047B704780B400AFFEE780B400AF75
:10055000FEE780B400AFFEE780B400AFFEE780B4F2
:1005600000AF00BFBD465DF8047B704780B400AFAC
:1005700000BFBD465DF8047B704780B400AF00BF8C
:10058000BD465DF8047B704780B400AF00BFBD4638
:100590005DF8047B70470000DFF834D0002103E0F1
:1005A0000C4B5B58435004310B480C4B42189A4299
:1005B000F6D30B4A02E0002342F8043B094B9A426F
:1005C000F9D300F013F800F02DF8FFF77FFF704724
:1005D000000008240008100800000424400404243B
:1005E0004004042480040424FEE7000080B400AF2B
:1005F0000B4BD3F888300A4A43F47003C2F88830B2
:10060000074B1B69064A43F010031361044B4FF07C
:1006100001629A6000BFBD465DF8047B704700BF71
:1006200000ED00E070B50D4E0D4D761BB61006D0F6
:100630000024013455F8043B9847A642F9D1094EED
:10064000094D761B00F0A0F8B61006D00024013446
:1006500055F8043B9847A642F9D170BDC007100871
:10066000C0071008C8071008C0071008024B13B1D4
:10067000024800F005B87047000000008D06100821
:10068000002301461A46184600F01EB838B50A4C39
:100690000A4D641BA4100AD004F18043013B05EB12
:1006A0008305013C55F804399847002CF9D1BDE881
:1006B000384000F06FB800BFE4071008E0071008EA
:1006C000704700BF704700BF2DE9F8432B4D064629
:1006D000286898460F469146FFF7F2FF284B1C68A2
:1006E000D4F84831002B3DD05A681F2A0DDC02F1A6
:1006F000010C16BB0232C3F804C0286843F822700C
:10070000FFF7E0FF0020BDE8F8831E4B7BB34FF4FA
:10071000C870AFF30080034648B3D4F848210021E5
:10072000C0E900214FF0010CC4F848010A46C0F8A6
:100730008811C0F88C11002EDCD003EB820101245B
:10074000C1F88890D3F8880194402043022EC3F862
:100750008801C1F80881CDD1D3F88C110C43C3F8BE
:100760008C41C7E704F5A673C4F84831BCE7286894
:10077000FFF7A8FF4FF0FF30C5E700BF28040424AF
:10078000A007100800000000F8B500BFF8BC08BCC6
:100790009E467047F8B500BFF8BC08BC9E4670473F
:1007A0000000042400000000000000000000000021
:1007B0000000000000000000000000000000000039
:1007C0006D061008C50210080000000000000000BF
:1007D0000000000000000000000000000000000019
:1007E000A10210080000000000000000000000004E
:1007F00000000000000000000000000000000000F9
:1008000000000000EC02042454030424BC0304246C
:1008100000000000000000000000000000000000D8
:1008200000000000000000000000000000000000C8
:1008300000000000000000000000000000000000B8
:1008400000000000000000000000000000000000A8
:100850000000000000000000000000000000000098
:100860000000000000000000000000000000000088
:100870000000000000000000000000000000000078
:100880000000000000000000000000000000000068
:100890000000000000000000000000000000000058
:1008A0000000000000000000010000000000000047
:1008B0000E33CDAB34126DE6ECDE05000B0000000C
:1008C0000000000000000000000000000000000028
:1008D0000000000000000000000000000000000018
:1008E0000000000000000000000000000000000008
:1008F00000000000000000000000000000000000F8
:100C200000000000000000005C040424000000003C
:100C300000000000000000000000000000000000B4
:040000050810059941
:00000001FF
:020000040800F2
:10000000000004240D060008E9050008ED050008BD
:10001000F1050008F5050008F905000800000000DA
:10002000000000000000000000000000FD050008C6
:100030000106000800000000050600080906000887
:100040005D0600085D0600085D0600085D06000804
:100050005D0600085D0600085D0600085D060008F4
:100060005D0600085D0600085D0600085D060008E4
:100070005D0600085D0600085D0600085D060008D4
:100080005D0600085D0600085D0600085D060008C4
:100090005D0600085D0600085D0600085D060008B4
:1000A0005D0600085D0600085D0600085D060008A4
:1000B0005D0600085D0600085D0600085D06000894
:1000C0005D0600085D0600085D0600085D06000884
:1000D0005D0600085D0600085D0600085D06000874
:1000E0005D0600085D060008000000005D060008CF
:1000F0005D0600085D0600085D0600085D06000854
:100100005D0600085D0600085D0600085D06000843
:100110005D0600085D0600085D0600085D06000833
:100120005D0600085D0600085D0600085D06000823
:100130005D0600085D0600085D0600085D06000813
:100140005D0600085D0600080000000000000000D9
:100150005D0600085D0600085D0600085D060008F3
:100160005D0600085D0600085D0600085D060008E3
:100170005D0600085D0600085D060008000000003E
:100180005D0600085D0600085D0600085D060008C3
:100190005D0600085D0600085D0600085D060008B3
:1001A0005D0600085D0600085D0600085D060008A3
:1001B0005D0600085D0600085D0600085D06000893
:1001C0005D0600085D0600085D0600085D06000883
:1001D0005D0600085D0600085D0600085D06000873
:1001E0005D0600085D0600085D0600085D06000863
:1001F0005D0600085D0600085D0600085D06000853
:100200005D0600085D0600085D0600085D06000842
:100210005D0600085D0600085D0600085D06000832
:100220005D0600085D0600085D060008000000008D
:100230005D0600085D0600085D0600085D06000812
:100240005D0600085D0600085D0600085D06000802
:100250005D0600085D0600085D0600085D060008F2
:100260005D0600085D0600085D0600085D060008E2
:100270005D0600085D0600085D0600085D060008D2
:100280005D0600085D0600085D060008000000002D
:100290005D0600085D060008000000000000000088
:1002A00010B5054C237833B9044B13B10448AFF3B0
:1002B00000800123237010BD4004002400000000D2
:1002C0005C0B000808B5034B1BB103490348AFF3AF
:1002D000008008BD00000000440400245C0B0008FE
:1002E000F0B589B0BFF34F8FBFF36F8FB4480022D2
:1002F000C0F85022BFF34F8FBFF36F8F436943F4B1
:1003000000334361BFF34F8FBFF36F8FC0F884207A
:10031000BFF34F8FD0F8803043F6E07CC3F3C906BB
:10032000C3F34E33B7075C0104EA0C053946324685
:1003300041EA0503013A01F14041C0F86032531C23
:10034000F6D1203C14F1200FEED1BFF34F8F43695B
:1003500043F480334361BFF34F8FBFF36F8F4FF48C
:100360008033984902E0013B00F021810A681204C1
:10037000F9D4954A1368114623F00F0343F00403A0
:1003800013600B6803F00F03042BFAD18F498D48DB
:10039000CA68034622F03F0242F00202CA608A693C
:1003A00022F4404242F480428A61026842F0010233
:1003B00002601A685707FCD5854A126802F070423D
:1003C000B2F1805F5A6800F0F48022F0FE4242F001
:1003D00000525A607B4A7F491068134620F018008B
:1003E0001060906A20F003009062D06A40F4803080
:1003F000D062D06A40F00C00D062D06A20F00200D7
:10040000D062906A20F47C7040F040009062106BE3
:10041000014041F03B011163116B21F47E4141F435
:1004200000711163116B21F4FE0141F480311163FD
:10043000116B21F0FE4141F080711163116841F0B0
:10044000807111601A689601FCD5D86A614940F440
:100450000020614A5B4CD862D86A40F0C000D86284
:10046000D86A40F02000D862986A20F47C3040F4CA
:1004700080409862986B014041F008019963996B44
:1004800021F47E4141F400719963996B21F4FE01DE
:1004900041F480319963996B21F0FE4141F0807104
:1004A0009963D96B0A4042F4C042DA63DA6A42F0D7
:1004B0001002DA621A6842F080621A6023681D0135
:1004C000FCD5A369454823F00F0343F00803A3615B
:1004D000236923F0070343F003032361A36923F493
:1004E0007063A361A36923F00F0343F00803A361C2
:1004F000E36923F0700343F04003E361E36923F40D
:10050000E06343F48063E361A36923F0700343F085
:100510004003A361236A23F0700343F04003236286
:1005200000F054FA2D4800F061FAA36D23F4403333
:10053000A365D4F8E03043F00073C4F8E030D4F899
:10054000E03003F000730093009BD4F8E03018070C
:100550000BD4D4F8E03043F00803C4F8E030D4F80A
:10056000E03003F008030193019B1D4C1025204649
:1005700000F0C6F80023012202A920460693CDE927
:100580000252CDE9043300F0A7F9164A4FF4407146
:100590004FF6FF73D2F880600A48A561116001E050
:1005A0005A1C05D00268013B1104F9D5FEE7FEE7AD
:1005B000FEE722F47C3242F400325A600AE700BFC0
:1005C00000ED00E0004402580020005200480258AC
:1005D0000010005C00FEFFFF0700FFFF00389C1CBE
:1005E000000C025800640258704700BFFEE700BFCD
:1005F000FEE700BFFEE700BFFEE700BF704700BF99
:10060000704700BF704700BF704700BFDFF834D0AD
:10061000002103E00C4B5B58435004310B480C4B5A
:1006200042189A42F6D30B4A02E0002342F8043BF8
:10063000094B9A42F9D300F013F800F0DDF9FFF707
:100640004FFE704700000424E00B00080000002467
:10065000400400244004002480040024FEE700003D
:100660001F4900221F4B204870B4D1F888401F4D0D
:1006700044F470041E4EC1F888400C6944F0100424
:100680000C611C681B4944F001041C601A611C6861
:10069000204018609A61DA611A629A62DA621A631B
:1006A0005A639A63DA631A645A64186820F48020E3
:1006B00018601A666B6A43F480436B6233681940B2
:1006C000B1F1005F02D20C4B01221A600B4943F2D8
:1006D000D200034B4FF0006208609A6070BC704714
:1006E00000ED00E0004402587FEDF6EAC00000583B
:1006F0000010005C0000FFFF088100510040005224
:100700006A4B984222D06A4B98424ED0694B98422D
:100710002BD0694B984258D0684B984265D0684BB3
:10072000984232D0674B98427FD0674B984200F096
:100730008C80664B984200F09880654B984264D05C
:10074000644B984200F0A1800020704703F5884375
:100750000120D3F888200243C3F88820D3F88820EA
:1007600022F00102C3F88820704703F5705301207E
:10077000D3F8882042F00402C3F88820D3F88820F8
:1007800022F00402C3F88820704703F5405301208B
:10079000D3F8882042F02002C3F88820D3F88820BC
:1007A00022F02002C3F88820704703F5804301201F
:1007B000D3F8882042F00202C3F88820D3F88820BA
:1007C00022F00202C3F88820704703F5605301202D
:1007D000D3F8882042F00802C3F88820D3F8882094
:1007E00022F00802C3F88820704703F55053012017
:1007F000D3F8882042F01002C3F88820D3F888206C
:1008000022F01002C3F88820704703F5005301203E
:10081000D3F8882042F40072C3F88820D3F88820E7
:1008200022F40072C3F88820704703F5305301208A
:10083000D3F8882042F04002C3F88820D3F88820FB
:1008400022F04002C3F88820704703F520530120AE
:10085000D3F8882042F08002C3F88820D3F888209B
:1008600022F08002C3F88820704703F5105301205E
:10087000D3F8882042F48072C3F88820D3F8882007
:1008800022F48072C3F88820704703F5E0530120FA
:10089000D3F8882042F48062C3F88820D3F88820F7
:1008A00022F48062C3F88820704700BF000002581D
:1008B0000004025800080258000C025800100258A8
:1008C0000014025800180258001C02580020025858
:1008D00000240258002802582DE9F04FD1F800C03A
:1008E00083B09CFAACF7D1F804A0B7FA87F70AF105
:1008F000FF3301933CFA07F34ED04FF0010908E0B3
:10090000C568154045EA0E05C56001373CFA07F396
:1009100042D009FA07F313EA0C0303FB03F4F4D003
:1009200004EB44020D6906680AFB04F8D24305FB98
:1009300004FE019D1640012D46EA08060660DFD838
:10094000866804FB04F81D0ABAF1020F02EA060BDE
:100950008E6805FB05F506FB04F4C8EB081605FBDD
:1009600005F544EA0B04C5EB051B8460C46802EA84
:10097000040242EA0E02C260C7D14A69FF2B02FBA1
:1009800008F819D8036A013723EA06063CFA07F388
:1009900046EA08060662BCD1019B012B08D8CA684A
:1009A000436802FB0CF223EA0C0C4CEA02024260A0
:1009B000012003B0BDE8F08F436A02FB05F523EA8E
:1009C0000B0B4BEA050545629FE700BF054A002176
:1009D000054BA2FB00200522800901385860996070
:1009E0001A607047D34D621010E000E0014B1860B0
:1009F000704700BF0400002470B50D4E0D4D761BEE
:100A0000B61006D00024013455F8043B9847A6429E
:100A1000F9D1094E094D761B00F0A0F8B61006D0AA
:100A20000024013455F8043B9847A642F9D170BD23
:100A3000A00B0008A00B0008A80B0008A00B0008E2
:100A4000024B13B1024800F005B8704700000000E7
:100A5000610A0008002301461A46184600F01EB835
:100A600038B50A4C0A4D641BA4100AD004F1804327
:100A7000013B05EB8305013C55F804399847002CF0
:100A8000F9D1BDE8384000F06FB800BFC40B0008D2
:100A9000C00B0008704700BF704700BF2DE9F84346
:100AA0002B4D0646286898460F469146FFF7F2FF01
:100AB000284B1C68D4F84831002B3DD05A681F2AB7
:100AC0000DDC02F1010C16BB0232C3F804C0286829
:100AD00043F82270FFF7E0FF0020BDE8F8831E4BCB
:100AE0007BB34FF4C870AFF30080034648B3D4F82B
:100AF00048210021C0E900214FF0010CC4F8480151
:100B00000A46C0F88811C0F88C11002EDCD003EB27
:100B100082010124C1F88890D3F8880194402043D1
:100B2000022EC3F88801C1F80881CDD1D3F88C1109
:100B30000C43C3F88C41C7E704F5A673C4F84831E9
:100B4000BCE72868FFF7A8FF4FF0FF30C5E700BFFC
:100B500030040024800B000800000000F8B500BF3E
:100B6000F8BC08BC9E467047F8B500BFF8BC08BC8E
:100B70009E467047000000000000000000000000DA
:100B80000800002400000000000000000000000039
:100B90000000000000000000000000000000000055
:100BA000410A0008C5020008000000000000000023
:100BB0000000000000000000000000000000000035
:100BC000A10200080000000000000000000000007A
:100BD0000000000000000000000000000000000015
:100BE0000090D0030090D00300000000F402002425
:100BF0005C030024C4030024000000000000000087
:100C000000000000000000000000000000000000E4
:100C100000000000000000000000000000000000D4
:100C200000000000000000000000000000000000C4
:100C300000000000000000000000000000000000B4
:100C400000000000000000000000000000000000A4
:100C50000000000000000000000000000000000094
:100C60000000000000000000000000000000000084
:100C70000000000000000000000000000000000074
:100C80000000000000000000000000000000000064
:100C900001000000000000000E33CDAB34126DE601
:100CA000ECDE05000B00000000000000000000006A
:100CB0000000000000000000000000000000000034
:100CC0000000000000000000000000000000000024
:100CD0000000000000000000000000000000000014
:100CE0000000000000000000000000000000000004
:101010005C0400240000000000000000000000004C
:040000050800060DDC
:00000001FF
